{
  "_format": "hh-sol-artifact-1",
  "contractName": "EcoCred",
  "sourceName": "contracts/Ecocred.sol",
  "abi": [
    {
      "anonymous": false,
      "inputs": [
        {
          "indexed": false,
          "internalType": "string",
          "name": "descricao",
          "type": "string"
        },
        {
          "indexed": false,
          "internalType": "string",
          "name": "arquivoHashCESS",
          "type": "string"
        },
        {
          "indexed": false,
          "internalType": "address",
          "name": "emissor",
          "type": "address"
        },
        {
          "indexed": false,
          "internalType": "uint256",
          "name": "timestamp",
          "type": "uint256"
        }
      ],
      "name": "CreditoEmitido",
      "type": "event"
    },
    {
      "inputs": [
        {
          "internalType": "uint256",
          "name": "",
          "type": "uint256"
        }
      ],
      "name": "creditos",
      "outputs": [
        {
          "internalType": "string",
          "name": "descricao",
          "type": "string"
        },
        {
          "internalType": "string",
          "name": "arquivoHashCESS",
          "type": "string"
        },
        {
          "internalType": "address",
          "name": "emissor",
          "type": "address"
        },
        {
          "internalType": "uint256",
          "name": "timestamp",
          "type": "uint256"
        }
      ],
      "stateMutability": "view",
      "type": "function"
    },
    {
      "inputs": [
        {
          "internalType": "string",
          "name": "descricao",
          "type": "string"
        },
        {
          "internalType": "string",
          "name": "hashCESS",
          "type": "string"
        }
      ],
      "name": "emitirCredito",
      "outputs": [],
      "stateMutability": "nonpayable",
      "type": "function"
    },
    {
      "inputs": [
        {
          "internalType": "uint256",
          "name": "index",
          "type": "uint256"
        }
      ],
      "name": "getCredito",
      "outputs": [
        {
          "internalType": "string",
          "name": "descricao",
          "type": "string"
        },
        {
          "internalType": "string",
          "name": "arquivoHashCESS",
          "type": "string"
        },
        {
          "internalType": "address",
          "name": "emissor",
          "type": "address"
        },
        {
          "internalType": "uint256",
          "name": "timestamp",
          "type": "uint256"
        }
      ],
      "stateMutability": "view",
      "type": "function"
    },
    {
      "inputs": [
        {
          "internalType": "address",
          "name": "emissor",
          "type": "address"
        }
      ],
      "name": "indicesPorEmissor",
      "outputs": [
        {
          "internalType": "uint256[]",
          "name": "",
          "type": "uint256[]"
        }
      ],
      "stateMutability": "view",
      "type": "function"
    },
    {
      "inputs": [],
      "name": "totalCreditos",
      "outputs": [
        {
          "internalType": "uint256",
          "name": "",
          "type": "uint256"
        }
      ],
      "stateMutability": "view",
      "type": "function"
    }
  ],
  "bytecode": "0x608060405234801561001057600080fd5b50610f86806100206000396000f3fe608060405234801561001057600080fd5b50600436106100575760003560e01c8063210687e11461005c57806340133cce14610078578063534bae0b14610096578063b74632dc146100c6578063e2f09f70146100f9575b600080fd5b6100766004803603810190610071919061087b565b61012c565b005b61008061024e565b60405161008d919061090c565b60405180910390f35b6100b060048036038101906100ab9190610985565b61025a565b6040516100bd9190610a70565b60405180910390f35b6100e060048036038101906100db9190610abe565b61042c565b6040516100f09493929190610b79565b60405180910390f35b610113600480360381019061010e9190610abe565b61059c565b6040516101239493929190610b79565b60405180910390f35b600060405180608001604052808481526020018381526020013373ffffffffffffffffffffffffffffffffffffffff16815260200142815250908060018154018082558091505060019003906000526020600020906004020160009091909190915060008201518160000190816101a39190610dd8565b5060208201518160010190816101b99190610dd8565b5060408201518160020160006101000a81548173ffffffffffffffffffffffffffffffffffffffff021916908373ffffffffffffffffffffffffffffffffffffffff1602179055506060820151816003015550507fdac88c1a78cab2a15205badc7415a2abbf411fd1de7820f91a371ac21dd9455a828233426040516102429493929190610b79565b60405180910390a15050565b60008080549050905090565b60606000805b600080549050811015610307578373ffffffffffffffffffffffffffffffffffffffff166000828154811061029857610297610eaa565b5b906000526020600020906004020160020160009054906101000a900473ffffffffffffffffffffffffffffffffffffffff1673ffffffffffffffffffffffffffffffffffffffff16036102f45781806102f090610f08565b9250505b80806102ff90610f08565b915050610260565b5060008167ffffffffffffffff81111561032457610323610750565b5b6040519080825280602002602001820160405280156103525781602001602082028036833780820191505090505b5090506000805b600080549050811015610420578573ffffffffffffffffffffffffffffffffffffffff166000828154811061039157610390610eaa565b5b906000526020600020906004020160020160009054906101000a900473ffffffffffffffffffffffffffffffffffffffff1673ffffffffffffffffffffffffffffffffffffffff160361040d57808383815181106103f2576103f1610eaa565b5b602002602001018181525050818061040990610f08565b9250505b808061041890610f08565b915050610359565b50819350505050919050565b6000818154811061043c57600080fd5b906000526020600020906004020160009150905080600001805461045f90610bfb565b80601f016020809104026020016040519081016040528092919081815260200182805461048b90610bfb565b80156104d85780601f106104ad576101008083540402835291602001916104d8565b820191906000526020600020905b8154815290600101906020018083116104bb57829003601f168201915b5050505050908060010180546104ed90610bfb565b80601f016020809104026020016040519081016040528092919081815260200182805461051990610bfb565b80156105665780601f1061053b57610100808354040283529160200191610566565b820191906000526020600020905b81548152906001019060200180831161054957829003601f168201915b5050505050908060020160009054906101000a900473ffffffffffffffffffffffffffffffffffffffff16908060030154905084565b60608060008060008086815481106105b7576105b6610eaa565b5b9060005260206000209060040201905080600001816001018260020160009054906101000a900473ffffffffffffffffffffffffffffffffffffffff16836003015483805461060590610bfb565b80601f016020809104026020016040519081016040528092919081815260200182805461063190610bfb565b801561067e5780601f106106535761010080835404028352916020019161067e565b820191906000526020600020905b81548152906001019060200180831161066157829003601f168201915b5050505050935082805461069190610bfb565b80601f01602080910402602001604051908101604052809291908181526020018280546106bd90610bfb565b801561070a5780601f106106df5761010080835404028352916020019161070a565b820191906000526020600020905b8154815290600101906020018083116106ed57829003601f168201915b505050505092509450945094509450509193509193565b6000604051905090565b600080fd5b600080fd5b600080fd5b600080fd5b6000601f19601f8301169050919050565b7f4e487b7100000000000000000000000000000000000000000000000000000000600052604160045260246000fd5b6107888261073f565b810181811067ffffffffffffffff821117156107a7576107a6610750565b5b80604052505050565b60006107ba610721565b90506107c6828261077f565b919050565b600067ffffffffffffffff8211156107e6576107e5610750565b5b6107ef8261073f565b9050602081019050919050565b82818337600083830152505050565b600061081e610819846107cb565b6107b0565b90508281526020810184848401111561083a5761083961073a565b5b6108458482856107fc565b509392505050565b600082601f83011261086257610861610735565b5b813561087284826020860161080b565b91505092915050565b600080604083850312156108925761089161072b565b5b600083013567ffffffffffffffff8111156108b0576108af610730565b5b6108bc8582860161084d565b925050602083013567ffffffffffffffff8111156108dd576108dc610730565b5b6108e98582860161084d565b9150509250929050565b6000819050919050565b610906816108f3565b82525050565b600060208201905061092160008301846108fd565b92915050565b600073ffffffffffffffffffffffffffffffffffffffff82169050919050565b600061095282610927565b9050919050565b61096281610947565b811461096d57600080fd5b50565b60008135905061097f81610959565b92915050565b60006020828403121561099b5761099a61072b565b5b60006109a984828501610970565b91505092915050565b600081519050919050565b600082825260208201905092915050565b6000819050602082019050919050565b6109e7816108f3565b82525050565b60006109f983836109de565b60208301905092915050565b6000602082019050919050565b6000610a1d826109b2565b610a2781856109bd565b9350610a32836109ce565b8060005b83811015610a63578151610a4a88826109ed565b9750610a5583610a05565b925050600181019050610a36565b5085935050505092915050565b60006020820190508181036000830152610a8a8184610a12565b905092915050565b610a9b816108f3565b8114610aa657600080fd5b50565b600081359050610ab881610a92565b92915050565b600060208284031215610ad457610ad361072b565b5b6000610ae284828501610aa9565b91505092915050565b600081519050919050565b600082825260208201905092915050565b60005b83811015610b25578082015181840152602081019050610b0a565b60008484015250505050565b6000610b3c82610aeb565b610b468185610af6565b9350610b56818560208601610b07565b610b5f8161073f565b840191505092915050565b610b7381610947565b82525050565b60006080820190508181036000830152610b938187610b31565b90508181036020830152610ba78186610b31565b9050610bb66040830185610b6a565b610bc360608301846108fd565b95945050505050565b7f4e487b7100000000000000000000000000000000000000000000000000000000600052602260045260246000fd5b60006002820490506001821680610c1357607f821691505b602082108103610c2657610c25610bcc565b5b50919050565b60008190508160005260206000209050919050565b60006020601f8301049050919050565b600082821b905092915050565b600060088302610c8e7fffffffffffffffffffffffffffffffffffffffffffffffffffffffffffffffff82610c51565b610c988683610c51565b95508019841693508086168417925050509392505050565b6000819050919050565b6000610cd5610cd0610ccb846108f3565b610cb0565b6108f3565b9050919050565b6000819050919050565b610cef83610cba565b610d03610cfb82610cdc565b848454610c5e565b825550505050565b600090565b610d18610d0b565b610d23818484610ce6565b505050565b5b81811015610d4757610d3c600082610d10565b600181019050610d29565b5050565b601f821115610d8c57610d5d81610c2c565b610d6684610c41565b81016020851015610d75578190505b610d89610d8185610c41565b830182610d28565b50505b505050565b600082821c905092915050565b6000610daf60001984600802610d91565b1980831691505092915050565b6000610dc88383610d9e565b9150826002028217905092915050565b610de182610aeb565b67ffffffffffffffff811115610dfa57610df9610750565b5b610e048254610bfb565b610e0f828285610d4b565b600060209050601f831160018114610e425760008415610e30578287015190505b610e3a8582610dbc565b865550610ea2565b601f198416610e5086610c2c565b60005b82811015610e7857848901518255600182019150602085019450602081019050610e53565b86831015610e955784890151610e91601f891682610d9e565b8355505b6001600288020188555050505b505050505050565b7f4e487b7100000000000000000000000000000000000000000000000000000000600052603260045260246000fd5b7f4e487b7100000000000000000000000000000000000000000000000000000000600052601160045260246000fd5b6000610f13826108f3565b91507fffffffffffffffffffffffffffffffffffffffffffffffffffffffffffffffff8203610f4557610f44610ed9565b5b60018201905091905056fea2646970667358221220d108468bd7e6a54963146fcac7119060f157202e2116dd1c55efe113d004397864736f6c63430008140033",
  "linkReferences": {},
  "deployedLinkReferences": {}
}